{
  "_format": "hh-sol-artifact-1",
  "contractName": "NFTMarketplace",
  "sourceName": "contracts/NFTMarketplace.sol",
  "abi": [
    {
      "inputs": [],
      "stateMutability": "nonpayable",
      "type": "constructor"
    },
    {
      "anonymous": false,
      "inputs": [
        {
          "indexed": true,
          "internalType": "address",
          "name": "owner",
          "type": "address"
        },
        {
          "indexed": true,
          "internalType": "address",
          "name": "approved",
          "type": "address"
        },
        {
          "indexed": true,
          "internalType": "uint256",
          "name": "tokenId",
          "type": "uint256"
        }
      ],
      "name": "Approval",
      "type": "event"
    },
    {
      "anonymous": false,
      "inputs": [
        {
          "indexed": true,
          "internalType": "address",
          "name": "owner",
          "type": "address"
        },
        {
          "indexed": true,
          "internalType": "address",
          "name": "operator",
          "type": "address"
        },
        {
          "indexed": false,
          "internalType": "bool",
          "name": "approved",
          "type": "bool"
        }
      ],
      "name": "ApprovalForAll",
      "type": "event"
    },
    {
      "anonymous": false,
      "inputs": [
        {
          "indexed": true,
          "internalType": "uint256",
          "name": "tokenId",
          "type": "uint256"
        },
        {
          "indexed": false,
          "internalType": "address",
          "name": "seller",
          "type": "address"
        },
        {
          "indexed": false,
          "internalType": "address",
          "name": "owner",
          "type": "address"
        },
        {
          "indexed": false,
          "internalType": "uint256",
          "name": "price",
          "type": "uint256"
        },
        {
          "indexed": false,
          "internalType": "bool",
          "name": "sold",
          "type": "bool"
        }
      ],
      "name": "MarketItemCreated",
      "type": "event"
    },
    {
      "anonymous": false,
      "inputs": [
        {
          "indexed": true,
          "internalType": "uint256",
          "name": "tokenId",
          "type": "uint256"
        },
        {
          "indexed": false,
          "internalType": "address",
          "name": "seller",
          "type": "address"
        },
        {
          "indexed": false,
          "internalType": "address",
          "name": "owner",
          "type": "address"
        },
        {
          "indexed": false,
          "internalType": "uint256",
          "name": "price",
          "type": "uint256"
        },
        {
          "indexed": false,
          "internalType": "bool",
          "name": "sold",
          "type": "bool"
        }
      ],
      "name": "PersonalItemCreated",
      "type": "event"
    },
    {
      "anonymous": false,
      "inputs": [
        {
          "indexed": true,
          "internalType": "address",
          "name": "from",
          "type": "address"
        },
        {
          "indexed": true,
          "internalType": "address",
          "name": "to",
          "type": "address"
        },
        {
          "indexed": true,
          "internalType": "uint256",
          "name": "tokenId",
          "type": "uint256"
        }
      ],
      "name": "Transfer",
      "type": "event"
    },
    {
      "anonymous": false,
      "inputs": [
        {
          "indexed": false,
          "internalType": "address",
          "name": "sender",
          "type": "address"
        },
        {
          "indexed": false,
          "internalType": "address",
          "name": "to",
          "type": "address"
        },
        {
          "indexed": false,
          "internalType": "uint256",
          "name": "amount",
          "type": "uint256"
        }
      ],
      "name": "TransferSent",
      "type": "event"
    },
    {
      "inputs": [
        {
          "internalType": "address",
          "name": "to",
          "type": "address"
        },
        {
          "internalType": "uint256",
          "name": "tokenId",
          "type": "uint256"
        }
      ],
      "name": "approve",
      "outputs": [],
      "stateMutability": "nonpayable",
      "type": "function"
    },
    {
      "inputs": [
        {
          "internalType": "address",
          "name": "_staker",
          "type": "address"
        }
      ],
      "name": "availableRewards",
      "outputs": [
        {
          "internalType": "uint256",
          "name": "",
          "type": "uint256"
        }
      ],
      "stateMutability": "view",
      "type": "function"
    },
    {
      "inputs": [
        {
          "internalType": "address",
          "name": "owner",
          "type": "address"
        }
      ],
      "name": "balanceOf",
      "outputs": [
        {
          "internalType": "uint256",
          "name": "",
          "type": "uint256"
        }
      ],
      "stateMutability": "view",
      "type": "function"
    },
    {
      "inputs": [],
      "name": "claimRewards",
      "outputs": [],
      "stateMutability": "nonpayable",
      "type": "function"
    },
    {
      "inputs": [
        {
          "internalType": "uint256",
          "name": "tokenId",
          "type": "uint256"
        }
      ],
      "name": "createMarketSale",
      "outputs": [],
      "stateMutability": "payable",
      "type": "function"
    },
    {
      "inputs": [
        {
          "internalType": "string",
          "name": "tokenURI",
          "type": "string"
        },
        {
          "internalType": "uint256",
          "name": "price",
          "type": "uint256"
        }
      ],
      "name": "createPersonalToken",
      "outputs": [
        {
          "internalType": "uint256",
          "name": "",
          "type": "uint256"
        }
      ],
      "stateMutability": "payable",
      "type": "function"
    },
    {
      "inputs": [
        {
          "internalType": "string",
          "name": "tokenURI",
          "type": "string"
        },
        {
          "internalType": "uint256",
          "name": "price",
          "type": "uint256"
        }
      ],
      "name": "createToken",
      "outputs": [
        {
          "internalType": "uint256",
          "name": "",
          "type": "uint256"
        }
      ],
      "stateMutability": "payable",
      "type": "function"
    },
    {
      "inputs": [],
      "name": "fetchItemsListed",
      "outputs": [
        {
          "components": [
            {
              "internalType": "uint256",
              "name": "tokenId",
              "type": "uint256"
            },
            {
              "internalType": "address payable",
              "name": "seller",
              "type": "address"
            },
            {
              "internalType": "address payable",
              "name": "owner",
              "type": "address"
            },
            {
              "internalType": "uint256",
              "name": "price",
              "type": "uint256"
            },
            {
              "internalType": "bool",
              "name": "sold",
              "type": "bool"
            }
          ],
          "internalType": "struct NFTMarketplace.MarketItem[]",
          "name": "",
          "type": "tuple[]"
        }
      ],
      "stateMutability": "view",
      "type": "function"
    },
    {
      "inputs": [],
      "name": "fetchMarketItems",
      "outputs": [
        {
          "components": [
            {
              "internalType": "uint256",
              "name": "tokenId",
              "type": "uint256"
            },
            {
              "internalType": "address payable",
              "name": "seller",
              "type": "address"
            },
            {
              "internalType": "address payable",
              "name": "owner",
              "type": "address"
            },
            {
              "internalType": "uint256",
              "name": "price",
              "type": "uint256"
            },
            {
              "internalType": "bool",
              "name": "sold",
              "type": "bool"
            }
          ],
          "internalType": "struct NFTMarketplace.MarketItem[]",
          "name": "",
          "type": "tuple[]"
        }
      ],
      "stateMutability": "view",
      "type": "function"
    },
    {
      "inputs": [],
      "name": "fetchMyNFTs",
      "outputs": [
        {
          "components": [
            {
              "internalType": "uint256",
              "name": "tokenId",
              "type": "uint256"
            },
            {
              "internalType": "address payable",
              "name": "seller",
              "type": "address"
            },
            {
              "internalType": "address payable",
              "name": "owner",
              "type": "address"
            },
            {
              "internalType": "uint256",
              "name": "price",
              "type": "uint256"
            },
            {
              "internalType": "bool",
              "name": "sold",
              "type": "bool"
            }
          ],
          "internalType": "struct NFTMarketplace.MarketItem[]",
          "name": "",
          "type": "tuple[]"
        }
      ],
      "stateMutability": "view",
      "type": "function"
    },
    {
      "inputs": [
        {
          "internalType": "uint256",
          "name": "tokenId",
          "type": "uint256"
        }
      ],
      "name": "getApproved",
      "outputs": [
        {
          "internalType": "address",
          "name": "",
          "type": "address"
        }
      ],
      "stateMutability": "view",
      "type": "function"
    },
    {
      "inputs": [],
      "name": "getCurrentTokenId",
      "outputs": [
        {
          "internalType": "uint256",
          "name": "",
          "type": "uint256"
        }
      ],
      "stateMutability": "view",
      "type": "function"
    },
    {
      "inputs": [],
      "name": "getListingPrice",
      "outputs": [
        {
          "internalType": "uint256",
          "name": "",
          "type": "uint256"
        }
      ],
      "stateMutability": "view",
      "type": "function"
    },
    {
      "inputs": [
        {
          "internalType": "uint256",
          "name": "tokenId",
          "type": "uint256"
        }
      ],
      "name": "getOwner",
      "outputs": [
        {
          "internalType": "address",
          "name": "",
          "type": "address"
        }
      ],
      "stateMutability": "view",
      "type": "function"
    },
    {
      "inputs": [
        {
          "internalType": "uint256",
          "name": "tokenId",
          "type": "uint256"
        }
      ],
      "name": "getPrice",
      "outputs": [
        {
          "internalType": "uint256",
          "name": "",
          "type": "uint256"
        }
      ],
      "stateMutability": "view",
      "type": "function"
    },
    {
      "inputs": [
        {
          "internalType": "address",
          "name": "_user",
          "type": "address"
        }
      ],
      "name": "getStakedTokens",
      "outputs": [
        {
          "components": [
            {
              "internalType": "address",
              "name": "staker",
              "type": "address"
            },
            {
              "internalType": "uint256",
              "name": "tokenId",
              "type": "uint256"
            }
          ],
          "internalType": "struct NFTMarketplace.StakedToken[]",
          "name": "",
          "type": "tuple[]"
        }
      ],
      "stateMutability": "view",
      "type": "function"
    },
    {
      "inputs": [],
      "name": "getZeroAdrress",
      "outputs": [
        {
          "internalType": "address",
          "name": "",
          "type": "address"
        }
      ],
      "stateMutability": "pure",
      "type": "function"
    },
    {
      "inputs": [
        {
          "internalType": "address",
          "name": "owner",
          "type": "address"
        },
        {
          "internalType": "address",
          "name": "operator",
          "type": "address"
        }
      ],
      "name": "isApprovedForAll",
      "outputs": [
        {
          "internalType": "bool",
          "name": "",
          "type": "bool"
        }
      ],
      "stateMutability": "view",
      "type": "function"
    },
    {
      "inputs": [],
      "name": "name",
      "outputs": [
        {
          "internalType": "string",
          "name": "",
          "type": "string"
        }
      ],
      "stateMutability": "view",
      "type": "function"
    },
    {
      "inputs": [
        {
          "internalType": "uint256",
          "name": "tokenId",
          "type": "uint256"
        }
      ],
      "name": "ownerOf",
      "outputs": [
        {
          "internalType": "address",
          "name": "",
          "type": "address"
        }
      ],
      "stateMutability": "view",
      "type": "function"
    },
    {
      "inputs": [
        {
          "internalType": "uint256",
          "name": "tokenId",
          "type": "uint256"
        },
        {
          "internalType": "uint256",
          "name": "price",
          "type": "uint256"
        }
      ],
      "name": "resellToken",
      "outputs": [],
      "stateMutability": "payable",
      "type": "function"
    },
    {
      "inputs": [],
      "name": "rewardsToken",
      "outputs": [
        {
          "internalType": "contract IERC20",
          "name": "",
          "type": "address"
        }
      ],
      "stateMutability": "view",
      "type": "function"
    },
    {
      "inputs": [
        {
          "internalType": "address",
          "name": "from",
          "type": "address"
        },
        {
          "internalType": "address",
          "name": "to",
          "type": "address"
        },
        {
          "internalType": "uint256",
          "name": "tokenId",
          "type": "uint256"
        }
      ],
      "name": "safeTransferFrom",
      "outputs": [],
      "stateMutability": "nonpayable",
      "type": "function"
    },
    {
      "inputs": [
        {
          "internalType": "address",
          "name": "from",
          "type": "address"
        },
        {
          "internalType": "address",
          "name": "to",
          "type": "address"
        },
        {
          "internalType": "uint256",
          "name": "tokenId",
          "type": "uint256"
        },
        {
          "internalType": "bytes",
          "name": "_data",
          "type": "bytes"
        }
      ],
      "name": "safeTransferFrom",
      "outputs": [],
      "stateMutability": "nonpayable",
      "type": "function"
    },
    {
      "inputs": [
        {
          "internalType": "address",
          "name": "operator",
          "type": "address"
        },
        {
          "internalType": "bool",
          "name": "approved",
          "type": "bool"
        }
      ],
      "name": "setApprovalForAll",
      "outputs": [],
      "stateMutability": "nonpayable",
      "type": "function"
    },
    {
      "inputs": [
        {
          "internalType": "uint256",
          "name": "_tokenId",
          "type": "uint256"
        }
      ],
      "name": "stake",
      "outputs": [],
      "stateMutability": "nonpayable",
      "type": "function"
    },
    {
      "inputs": [
        {
          "internalType": "uint256",
          "name": "",
          "type": "uint256"
        }
      ],
      "name": "stakerAddress",
      "outputs": [
        {
          "internalType": "address",
          "name": "",
          "type": "address"
        }
      ],
      "stateMutability": "view",
      "type": "function"
    },
    {
      "inputs": [
        {
          "internalType": "address",
          "name": "",
          "type": "address"
        }
      ],
      "name": "stakers",
      "outputs": [
        {
          "internalType": "uint256",
          "name": "amountStaked",
          "type": "uint256"
        },
        {
          "internalType": "uint256",
          "name": "timeOfLastUpdate",
          "type": "uint256"
        },
        {
          "internalType": "uint256",
          "name": "unclaimedRewards",
          "type": "uint256"
        }
      ],
      "stateMutability": "view",
      "type": "function"
    },
    {
      "inputs": [
        {
          "internalType": "bytes4",
          "name": "interfaceId",
          "type": "bytes4"
        }
      ],
      "name": "supportsInterface",
      "outputs": [
        {
          "internalType": "bool",
          "name": "",
          "type": "bool"
        }
      ],
      "stateMutability": "view",
      "type": "function"
    },
    {
      "inputs": [],
      "name": "symbol",
      "outputs": [
        {
          "internalType": "string",
          "name": "",
          "type": "string"
        }
      ],
      "stateMutability": "view",
      "type": "function"
    },
    {
      "inputs": [],
      "name": "tokenID",
      "outputs": [
        {
          "internalType": "uint256",
          "name": "",
          "type": "uint256"
        }
      ],
      "stateMutability": "view",
      "type": "function"
    },
    {
      "inputs": [
        {
          "internalType": "uint256",
          "name": "tokenId",
          "type": "uint256"
        }
      ],
      "name": "tokenURI",
      "outputs": [
        {
          "internalType": "string",
          "name": "",
          "type": "string"
        }
      ],
      "stateMutability": "view",
      "type": "function"
    },
    {
      "inputs": [
        {
          "internalType": "address",
          "name": "from",
          "type": "address"
        },
        {
          "internalType": "address",
          "name": "to",
          "type": "address"
        },
        {
          "internalType": "uint256",
          "name": "tokenId",
          "type": "uint256"
        }
      ],
      "name": "transferFrom",
      "outputs": [],
      "stateMutability": "nonpayable",
      "type": "function"
    },
    {
      "inputs": [
        {
          "internalType": "uint256",
          "name": "_listingPrice",
          "type": "uint256"
        }
      ],
      "name": "updateListingPrice",
      "outputs": [],
      "stateMutability": "payable",
      "type": "function"
    },
    {
      "inputs": [
        {
          "internalType": "uint256",
          "name": "_tokenId",
          "type": "uint256"
        }
      ],
      "name": "withdraw",
      "outputs": [],
      "stateMutability": "nonpayable",
      "type": "function"
    }
  ],
  "bytecode": "0x60a06040526658d15e17628000600a557f397a24eff3d4fed7fce4172ba3fb68bbf022baf70000000000000000000000006080526103e8600d553480156200004657600080fd5b50604080518082018252601081526f4d657461766572736520546f6b656e7360801b6020808301918252835180850190945260048452631351551560e21b9084015281519192916200009b91600091620000d1565b508051620000b1906001906020840190620000d1565b5050600160075550600b80546001600160a01b03191633179055620001b4565b828054620000df9062000177565b90600052602060002090601f0160209004810192826200010357600085556200014e565b82601f106200011e57805160ff19168380011785556200014e565b828001600101855582156200014e579182015b828111156200014e57825182559160200191906001019062000131565b506200015c92915062000160565b5090565b5b808211156200015c576000815560010162000161565b600181811c908216806200018c57607f821691505b60208210811415620001ae57634e487b7160e01b600052602260045260246000fd5b50919050565b60805160601c613600620001da6000396000818161061901526111b901526136006000f3fe6080604052600436106102345760003560e01c80639168ae7211610138578063b88d4fde116100b0578063d1af0c7d1161007f578063e757223011610064578063e75722301461064e578063e985e9c51461067e578063f854a27f146106c757600080fd5b8063d1af0c7d14610607578063e219fc751461063b57600080fd5b8063b88d4fde1461057b578063be9af5361461059b578063c41a360a146105ae578063c87b56dd146105e757600080fd5b8063a22cb46511610107578063a694fc3a116100ec578063a694fc3a14610535578063ad141f9614610555578063ae677aa31461056857600080fd5b8063a22cb46514610515578063a5c42ef1146103ca57600080fd5b80639168ae721461045f57806394067045146104b657806395d89b41146104ec5780639f66dd1d1461050157600080fd5b80632e1a7d4d116101cb578063561892361161019a57806363c28db11161017f57806363c28db1146103ff57806370a082311461042c57806372b3b6201461044c57600080fd5b806356189236146103ca5780636352211e146103df57600080fd5b80632e1a7d4d14610360578063372500ab1461038057806342842e0e1461039557806345f8fa80146103b557600080fd5b80630f08efe0116102075780630f08efe0146102ea57806312e855851461030c578063202e37401461032b57806323b872dd1461034057600080fd5b806301ffc9a71461023957806306fdde031461026e578063081812fc14610290578063095ea7b3146102c8575b600080fd5b34801561024557600080fd5b50610259610254366004613205565b6106e7565b60405190151581526020015b60405180910390f35b34801561027a57600080fd5b50610283610784565b6040516102659190613442565b34801561029c57600080fd5b506102b06102ab366004613293565b610816565b6040516001600160a01b039091168152602001610265565b3480156102d457600080fd5b506102e86102e33660046131c0565b6108b0565b005b3480156102f657600080fd5b506102ff6109e2565b604051610265919061337b565b34801561031857600080fd5b50600a545b604051908152602001610265565b34801561033757600080fd5b506102ff610b96565b34801561034c57600080fd5b506102e861035b3660046130d6565b610d88565b34801561036c57600080fd5b506102e861037b366004613293565b610e0f565b34801561038c57600080fd5b506102e8611120565b3480156103a157600080fd5b506102e86103b03660046130d6565b6111e2565b3480156103c157600080fd5b506102ff6111fd565b3480156103d657600080fd5b5061031d6113ef565b3480156103eb57600080fd5b506102b06103fa366004613293565b6113ff565b34801561040b57600080fd5b5061041f61041a36600461308a565b61148a565b60405161026591906133f7565b34801561043857600080fd5b5061031d61044736600461308a565b6116c1565b61031d61045a36600461323d565b61175b565b34801561046b57600080fd5b5061049b61047a36600461308a565b600e6020526000908152604090208054600282015460039092015490919083565b60408051938452602084019290925290820152606001610265565b3480156104c257600080fd5b506102b06104d1366004613293565b600f602052600090815260409020546001600160a01b031681565b3480156104f857600080fd5b5061028361179d565b34801561050d57600080fd5b5060006102b0565b34801561052157600080fd5b506102e861053036600461318a565b6117ac565b34801561054157600080fd5b506102e8610550366004613293565b6117bb565b61031d61056336600461323d565b61199c565b6102e8610576366004613293565b6119d7565b34801561058757600080fd5b506102e8610596366004613111565b611a5c565b6102e86105a9366004613293565b611aea565b3480156105ba57600080fd5b506102b06105c9366004613293565b6000908152600c60205260409020600201546001600160a01b031690565b3480156105f357600080fd5b50610283610602366004613293565b611c52565b34801561061357600080fd5b506102b07f000000000000000000000000000000000000000000000000000000000000000081565b6102e86106493660046132c3565b611de5565b34801561065a57600080fd5b5061031d610669366004613293565b6000908152600c602052604090206003015490565b34801561068a57600080fd5b506102596106993660046130a4565b6001600160a01b03918216600090815260056020908152604080832093909416825291909152205460ff1690565b3480156106d357600080fd5b5061031d6106e236600461308a565b611f2c565b60006001600160e01b031982167f80ac58cd00000000000000000000000000000000000000000000000000000000148061074a57506001600160e01b031982167f5b5e139f00000000000000000000000000000000000000000000000000000000145b8061077e57507f01ffc9a7000000000000000000000000000000000000000000000000000000006001600160e01b03198316145b92915050565b606060008054610793906134fa565b80601f01602080910402602001604051908101604052809291908181526020018280546107bf906134fa565b801561080c5780601f106107e15761010080835404028352916020019161080c565b820191906000526020600020905b8154815290600101906020018083116107ef57829003601f168201915b5050505050905090565b6000818152600260205260408120546001600160a01b03166108945760405162461bcd60e51b815260206004820152602c60248201527f4552433732313a20617070726f76656420717565727920666f72206e6f6e657860448201526b34b9ba32b73a103a37b5b2b760a11b60648201526084015b60405180910390fd5b506000908152600460205260409020546001600160a01b031690565b60006108bb826113ff565b9050806001600160a01b0316836001600160a01b031614156109455760405162461bcd60e51b815260206004820152602160248201527f4552433732313a20617070726f76616c20746f2063757272656e74206f776e6560448201527f7200000000000000000000000000000000000000000000000000000000000000606482015260840161088b565b336001600160a01b038216148061096157506109618133610699565b6109d35760405162461bcd60e51b815260206004820152603860248201527f4552433732313a20617070726f76652063616c6c6572206973206e6f74206f7760448201527f6e6572206e6f7220617070726f76656420666f7220616c6c0000000000000000606482015260840161088b565b6109dd8383611f5d565b505050565b606060006109ef60085490565b905060006109fc60095490565b600854610a0991906134a0565b90506000808267ffffffffffffffff811115610a3557634e487b7160e01b600052604160045260246000fd5b604051908082528060200260200182016040528015610a8e57816020015b6040805160a081018252600080825260208083018290529282018190526060820181905260808201528252600019909201910181610a535790505b50905060005b84811015610b8d5730600c6000610aac846001613455565b81526020810191909152604001600020600201546001600160a01b03161415610b7b576000610adc826001613455565b6000818152600c6020908152604091829020825160a0810184528154815260018201546001600160a01b039081169382019390935260028201549092169282019290925260038201546060820152600482015460ff161515608082015285519293509091859087908110610b6057634e487b7160e01b600052603260045260246000fd5b6020908102919091010152610b76600186613455565b945050505b80610b8581613535565b915050610a94565b50949350505050565b60606000610ba360085490565b905060008060005b83811015610c065733600c6000610bc3846001613455565b81526020810191909152604001600020600201546001600160a01b03161415610bf457610bf1600184613455565b92505b80610bfe81613535565b915050610bab565b5060008267ffffffffffffffff811115610c3057634e487b7160e01b600052604160045260246000fd5b604051908082528060200260200182016040528015610c8957816020015b6040805160a081018252600080825260208083018290529282018190526060820181905260808201528252600019909201910181610c4e5790505b50905060005b84811015610b8d5733600c6000610ca7846001613455565b81526020810191909152604001600020600201546001600160a01b03161415610d76576000610cd7826001613455565b6000818152600c6020908152604091829020825160a0810184528154815260018201546001600160a01b039081169382019390935260028201549092169282019290925260038201546060820152600482015460ff161515608082015285519293509091859087908110610d5b57634e487b7160e01b600052603260045260246000fd5b6020908102919091010152610d71600186613455565b945050505b80610d8081613535565b915050610c8f565b610d923382611fcb565b610e045760405162461bcd60e51b815260206004820152603160248201527f4552433732313a207472616e736665722063616c6c6572206973206e6f74206f60448201527f776e6572206e6f7220617070726f766564000000000000000000000000000000606482015260840161088b565b6109dd8383836120be565b60026007541415610e625760405162461bcd60e51b815260206004820152601f60248201527f5265656e7472616e637947756172643a207265656e7472616e742063616c6c00604482015260640161088b565b6002600755336000908152600e6020526040902054610ec35760405162461bcd60e51b815260206004820152601960248201527f596f752068617665206e6f20746f6b656e73207374616b656400000000000000604482015260640161088b565b6000818152600f60205260409020546001600160a01b03163314610f295760405162461bcd60e51b815260206004820152601960248201527f596f7520646f6e2774206f776e207468697320746f6b656e2100000000000000604482015260640161088b565b6000610f343361228b565b336000908152600e6020526040812060030180549293508392909190610f5b908490613455565b9091555060009050805b336000908152600e602052604090206001015481101561103c57336000908152600e60205260409020600101805485919083908110610fb457634e487b7160e01b600052603260045260246000fd5b90600052602060002090600202016001015414801561101d5750336000908152600e6020526040812060010180548390811061100057634e487b7160e01b600052603260045260246000fd5b60009182526020909120600290910201546001600160a01b031614155b1561102a5780915061103c565b8061103481613535565b915050610f65565b50336000908152600e6020526040812060010180548390811061106f57634e487b7160e01b600052603260045260246000fd5b6000918252602080832060029290920290910180546001600160a01b0319166001600160a01b039490941693909317909255338152600e909152604081208054916110b9836134e3565b90915550506000838152600f6020908152604080832080546001600160a01b0319908116909155600c909252909120600201805433921682179055611100903090856120be565b5050336000908152600e6020526040902042600290910155506001600755565b336000818152600e6020526040812060030154909161113e9061228b565b6111489190613455565b90506000811161119a5760405162461bcd60e51b815260206004820152601c60248201527f596f752068617665206e6f207265776172647320746f20636c61696d00000000604482015260640161088b565b336000818152600e60205260408120426002820155600301556111df907f000000000000000000000000000000000000000000000000000000000000000090836122df565b50565b6109dd83838360405180602001604052806000815250611a5c565b6060600061120a60085490565b905060008060005b8381101561126d5733600c600061122a846001613455565b81526020810191909152604001600020600101546001600160a01b0316141561125b57611258600184613455565b92505b8061126581613535565b915050611212565b5060008267ffffffffffffffff81111561129757634e487b7160e01b600052604160045260246000fd5b6040519080825280602002602001820160405280156112f057816020015b6040805160a0810182526000808252602080830182905292820181905260608201819052608082015282526000199092019101816112b55790505b50905060005b84811015610b8d5733600c600061130e846001613455565b81526020810191909152604001600020600101546001600160a01b031614156113dd57600061133e826001613455565b6000818152600c6020908152604091829020825160a0810184528154815260018201546001600160a01b039081169382019390935260028201549092169282019290925260038201546060820152600482015460ff1615156080820152855192935090918590879081106113c257634e487b7160e01b600052603260045260246000fd5b60209081029190910101526113d8600186613455565b945050505b806113e781613535565b9150506112f6565b60006113fa60085490565b905090565b6000818152600260205260408120546001600160a01b03168061077e5760405162461bcd60e51b815260206004820152602960248201527f4552433732313a206f776e657220717565727920666f72206e6f6e657869737460448201527f656e7420746f6b656e0000000000000000000000000000000000000000000000606482015260840161088b565b6001600160a01b0381166000908152600e602052604090205460609015611678576001600160a01b0382166000908152600e602052604081205467ffffffffffffffff8111156114ea57634e487b7160e01b600052604160045260246000fd5b60405190808252806020026020018201604052801561152f57816020015b60408051808201909152600080825260208201528152602001906001900390816115085790505b5090506000805b6001600160a01b0385166000908152600e602052604090206001015481101561166f576001600160a01b0385166000908152600e6020526040812060010180548390811061159457634e487b7160e01b600052603260045260246000fd5b60009182526020909120600290910201546001600160a01b03161461165d576001600160a01b0385166000908152600e602052604090206001018054829081106115ee57634e487b7160e01b600052603260045260246000fd5b60009182526020918290206040805180820190915260029092020180546001600160a01b031682526001015491810191909152835184908490811061164357634e487b7160e01b600052603260045260246000fd5b6020026020010181905250818061165990613535565b9250505b8061166781613535565b915050611536565b50909392505050565b60408051600080825260208201909252906116b5565b604080518082019091526000808252602082015281526020019060019003908161168e5790505b5092915050565b919050565b60006001600160a01b03821661173f5760405162461bcd60e51b815260206004820152602a60248201527f4552433732313a2062616c616e636520717565727920666f7220746865207a6560448201527f726f206164647265737300000000000000000000000000000000000000000000606482015260840161088b565b506001600160a01b031660009081526003602052604090205490565b600061176b600880546001019055565b600061177660085490565b90506117823382612509565b61178c818561264b565b61179681846126f4565b9392505050565b606060018054610793906134fa565b6117b7338383612887565b5050565b6002600754141561180e5760405162461bcd60e51b815260206004820152601f60248201527f5265656e7472616e637947756172643a207265656e7472616e742063616c6c00604482015260640161088b565b6002600755336000908152600e6020526040902054156118615760006118333361228b565b336000908152600e602052604081206003018054929350839290919061185a908490613455565b9091555050505b6000818152600c60205260409020600201546001600160a01b031633146118ca5760405162461bcd60e51b815260206004820152601960248201527f596f7520646f6e2774206f776e207468697320746f6b656e2100000000000000604482015260640161088b565b6118d53330836120be565b6040805180820182523380825260208083018581526000838152600e8352948520600180820180548083018255908852938720865160029095020180546001600160a01b0319166001600160a01b03909516949094178455915192909101919091559083528054919261194783613535565b9091555050506000908152600f602090815260408083208054336001600160a01b03199182168117909255600c845282852060029081018054909216909155908452600e909252909120429101556001600755565b60006119ac600880546001019055565b60006119b760085490565b90506119c33382612509565b6119cd818561264b565b6117968184612956565b600b546001600160a01b03163314611a575760405162461bcd60e51b815260206004820152603060248201527f4f6e6c79206d61726b6574706c616365206f776e65722063616e20757064617460448201527f65206c697374696e672070726963652e00000000000000000000000000000000606482015260840161088b565b600a55565b611a663383611fcb565b611ad85760405162461bcd60e51b815260206004820152603160248201527f4552433732313a207472616e736665722063616c6c6572206973206e6f74206f60448201527f776e6572206e6f7220617070726f766564000000000000000000000000000000606482015260840161088b565b611ae484848484612ade565b50505050565b6000818152600c6020526040902060030154348114611b73576040805162461bcd60e51b81526020600482015260248101919091527f506c65617365207375626d6974207468652061736b696e67207072696365206960448201527f6e206f7264657220746f20636f6d706c65746520746865207075726368617365606482015260840161088b565b6000828152600c602052604090206002810180546001600160a01b0319908116331790915560048201805460ff1916600190811790915590910180549091169055611bc2600980546001019055565b611bcd3033846120be565b600b54600a546040516001600160a01b039092169181156108fc0291906000818181858888f19350505050158015611c09573d6000803e3d6000fd5b506000828152600c60205260408082206001015490516001600160a01b03909116913480156108fc02929091818181858888f193505050501580156109dd573d6000803e3d6000fd5b6000818152600260205260409020546060906001600160a01b0316611cdf5760405162461bcd60e51b815260206004820152603160248201527f45524337323155524953746f726167653a2055524920717565727920666f722060448201527f6e6f6e6578697374656e7420746f6b656e000000000000000000000000000000606482015260840161088b565b60008281526006602052604081208054611cf8906134fa565b80601f0160208091040260200160405190810160405280929190818152602001828054611d24906134fa565b8015611d715780601f10611d4657610100808354040283529160200191611d71565b820191906000526020600020905b815481529060010190602001808311611d5457829003601f168201915b505050505090506000611d8f60408051602081019091526000815290565b9050805160001415611da2575092915050565b815115611dd4578082604051602001611dbc929190613310565b60405160208183030381529060405292505050919050565b611ddd84612b67565b949350505050565b6000828152600c60205260409020600201546001600160a01b03163314611e745760405162461bcd60e51b815260206004820152602a60248201527f4f6e6c79206974656d206f776e65722063616e20706572666f726d207468697360448201527f206f7065726174696f6e00000000000000000000000000000000000000000000606482015260840161088b565b600a543414611ed15760405162461bcd60e51b8152602060048201526024808201527f5072696365206d75737420626520657175616c20746f206c697374696e6720706044820152637269636560e01b606482015260840161088b565b6000828152600c6020526040902060048101805460ff19169055600381018290556001810180546001600160a01b031990811633179091556002909101805490911630179055611f216009612c5c565b6117b73330846120be565b6001600160a01b0381166000908152600e60205260408120600301548190611f538461228b565b6117969190613455565b600081815260046020526040902080546001600160a01b0319166001600160a01b0384169081179091558190611f92826113ff565b6001600160a01b03167f8c5be1e5ebec7d5bd14f71427d1e84f3dd0314c0f7b2291e5b200ac8c7c3b92560405160405180910390a45050565b6000818152600260205260408120546001600160a01b03166120445760405162461bcd60e51b815260206004820152602c60248201527f4552433732313a206f70657261746f7220717565727920666f72206e6f6e657860448201526b34b9ba32b73a103a37b5b2b760a11b606482015260840161088b565b600061204f836113ff565b9050806001600160a01b0316846001600160a01b0316148061208a5750836001600160a01b031661207f84610816565b6001600160a01b0316145b80611ddd57506001600160a01b0380821660009081526005602090815260408083209388168352929052205460ff16611ddd565b826001600160a01b03166120d1826113ff565b6001600160a01b03161461214d5760405162461bcd60e51b815260206004820152602560248201527f4552433732313a207472616e736665722066726f6d20696e636f72726563742060448201527f6f776e6572000000000000000000000000000000000000000000000000000000606482015260840161088b565b6001600160a01b0382166121c85760405162461bcd60e51b8152602060048201526024808201527f4552433732313a207472616e7366657220746f20746865207a65726f2061646460448201527f7265737300000000000000000000000000000000000000000000000000000000606482015260840161088b565b6121d3600082611f5d565b6001600160a01b03831660009081526003602052604081208054600192906121fc9084906134a0565b90915550506001600160a01b038216600090815260036020526040812080546001929061222a908490613455565b909155505060008181526002602052604080822080546001600160a01b0319166001600160a01b0386811691821790925591518493918716917fddf252ad1be2c89b69c2b068fc378daa952ba7f163c4a11628f55a4df523b3ef91a4505050565b600d546001600160a01b0382166000908152600e6020526040812080546002909101549192610e10929091906122c190426134a0565b6122cb9190613481565b6122d59190613481565b61077e919061346d565b600b546001600160a01b031633146123395760405162461bcd60e51b815260206004820152601d60248201527f4f6e6c79206f776e65722063616e2077697468647261772066756e6473000000604482015260640161088b565b6040517f70a082310000000000000000000000000000000000000000000000000000000081523060048201526000906001600160a01b038516906370a082319060240160206040518083038186803b15801561239457600080fd5b505afa1580156123a8573d6000803e3d6000fd5b505050506040513d601f19601f820116820180604052508101906123cc91906132ab565b90508082111561241e5760405162461bcd60e51b815260206004820152600e60248201527f62616c616e6365206973206c6f77000000000000000000000000000000000000604482015260640161088b565b6040517fa9059cbb0000000000000000000000000000000000000000000000000000000081526001600160a01b0384811660048301526024820184905285169063a9059cbb90604401602060405180830381600087803b15801561248157600080fd5b505af1158015612495573d6000803e3d6000fd5b505050506040513d601f19601f820116820180604052508101906124b991906131e9565b50604080513381526001600160a01b03851660208201529081018390527ffda3a3e0e1479b43cb1c701f7576187f4c4ad80768d627387e00184302f7d88e9060600160405180910390a150505050565b6001600160a01b03821661255f5760405162461bcd60e51b815260206004820181905260248201527f4552433732313a206d696e7420746f20746865207a65726f2061646472657373604482015260640161088b565b6000818152600260205260409020546001600160a01b0316156125c45760405162461bcd60e51b815260206004820152601c60248201527f4552433732313a20746f6b656e20616c7265616479206d696e74656400000000604482015260640161088b565b6001600160a01b03821660009081526003602052604081208054600192906125ed908490613455565b909155505060008181526002602052604080822080546001600160a01b0319166001600160a01b03861690811790915590518392907fddf252ad1be2c89b69c2b068fc378daa952ba7f163c4a11628f55a4df523b3ef908290a45050565b6000828152600260205260409020546001600160a01b03166126d55760405162461bcd60e51b815260206004820152602e60248201527f45524337323155524953746f726167653a2055524920736574206f66206e6f6e60448201527f6578697374656e7420746f6b656e000000000000000000000000000000000000606482015260840161088b565b600082815260066020908152604090912082516109dd92840190612f64565b600081116127445760405162461bcd60e51b815260206004820152601c60248201527f5072696365206d757374206265206174206c6561737420312077656900000000604482015260640161088b565b600a5434146127a15760405162461bcd60e51b8152602060048201526024808201527f5072696365206d75737420626520657175616c20746f206c697374696e6720706044820152637269636560e01b606482015260840161088b565b6040805160a08101825283815233602080830182815230848601818152606086018881526000608088018181528b8252600c909652979097209551865591516001860180546001600160a01b03199081166001600160a01b0393841617909155925160028701805490941691161790915593516003840155516004909201805460ff19169215159290921790915561283991846120be565b604080513381523060208201529081018290526000606082015282907fb640004f1d14576d0c209e240cad0410e0d8c0c33a09375861fbadae2588a98d906080015b60405180910390a25050565b816001600160a01b0316836001600160a01b031614156128e95760405162461bcd60e51b815260206004820152601960248201527f4552433732313a20617070726f766520746f2063616c6c657200000000000000604482015260640161088b565b6001600160a01b03838116600081815260056020908152604080832094871680845294825291829020805460ff191686151590811790915591519182527f17307eab39ab6107e8899845ad3d59bd9653f200f220920489ca2b5937696c31910160405180910390a3505050565b600081116129a65760405162461bcd60e51b815260206004820152601c60248201527f5072696365206d757374206265206174206c6561737420312077656900000000604482015260640161088b565b6040805160a08101825283815233602080830182815230848601818152606086018881526000608088018181528b8252600c909652979097209551865591516001860180546001600160a01b03199081166001600160a01b0393841617909155925160028701805490941691161790915593516003840155516004909201805460ff191692151592909217909155612a3e91846120be565b6000828152600c602052604090206002810180546001600160a01b0319908116331790915560048201805460ff1916600190811790915590910180549091169055612a8d600980546001019055565b612a983033846120be565b604080513081523360208201529081018290526001606082015282907fd6cae11418ba2a1ec659992393f3db3926b5d6391aba2e8e6032a490247a07679060800161287b565b612ae98484846120be565b612af584848484612cb3565b611ae45760405162461bcd60e51b815260206004820152603260248201527f4552433732313a207472616e7366657220746f206e6f6e20455243373231526560448201527f63656976657220696d706c656d656e7465720000000000000000000000000000606482015260840161088b565b6000818152600260205260409020546060906001600160a01b0316612bf45760405162461bcd60e51b815260206004820152602f60248201527f4552433732314d657461646174613a2055524920717565727920666f72206e6f60448201527f6e6578697374656e7420746f6b656e0000000000000000000000000000000000606482015260840161088b565b6000612c0b60408051602081019091526000815290565b90506000815111612c2b5760405180602001604052806000815250611796565b80612c3584612e16565b604051602001612c46929190613310565b6040516020818303038152906040529392505050565b805480612cab5760405162461bcd60e51b815260206004820152601b60248201527f436f756e7465723a2064656372656d656e74206f766572666c6f770000000000604482015260640161088b565b600019019055565b60006001600160a01b0384163b15612e0b57604051630a85bd0160e11b81526001600160a01b0385169063150b7a0290612cf790339089908890889060040161333f565b602060405180830381600087803b158015612d1157600080fd5b505af1925050508015612d41575060408051601f3d908101601f19168201909252612d3e91810190613221565b60015b612df1573d808015612d6f576040519150601f19603f3d011682016040523d82523d6000602084013e612d74565b606091505b508051612de95760405162461bcd60e51b815260206004820152603260248201527f4552433732313a207472616e7366657220746f206e6f6e20455243373231526560448201527f63656976657220696d706c656d656e7465720000000000000000000000000000606482015260840161088b565b805181602001fd5b6001600160e01b031916630a85bd0160e11b149050611ddd565b506001949350505050565b606081612e5657505060408051808201909152600181527f3000000000000000000000000000000000000000000000000000000000000000602082015290565b8160005b8115612e805780612e6a81613535565b9150612e799050600a8361346d565b9150612e5a565b60008167ffffffffffffffff811115612ea957634e487b7160e01b600052604160045260246000fd5b6040519080825280601f01601f191660200182016040528015612ed3576020820181803683370190505b5090505b8415611ddd57612ee86001836134a0565b9150612ef5600a86613550565b612f00906030613455565b60f81b818381518110612f2357634e487b7160e01b600052603260045260246000fd5b60200101907effffffffffffffffffffffffffffffffffffffffffffffffffffffffffffff1916908160001a905350612f5d600a8661346d565b9450612ed7565b828054612f70906134fa565b90600052602060002090601f016020900481019282612f925760008555612fd8565b82601f10612fab57805160ff1916838001178555612fd8565b82800160010185558215612fd8579182015b82811115612fd8578251825591602001919060010190612fbd565b50612fe4929150612fe8565b5090565b5b80821115612fe45760008155600101612fe9565b600067ffffffffffffffff8084111561301857613018613590565b604051601f8501601f19908116603f0116810190828211818310171561304057613040613590565b8160405280935085815286868601111561305957600080fd5b858560208301376000602087830101525050509392505050565b80356001600160a01b03811681146116bc57600080fd5b60006020828403121561309b578081fd5b61179682613073565b600080604083850312156130b6578081fd5b6130bf83613073565b91506130cd60208401613073565b90509250929050565b6000806000606084860312156130ea578081fd5b6130f384613073565b925061310160208501613073565b9150604084013590509250925092565b60008060008060808587031215613126578081fd5b61312f85613073565b935061313d60208601613073565b925060408501359150606085013567ffffffffffffffff81111561315f578182fd5b8501601f8101871361316f578182fd5b61317e87823560208401612ffd565b91505092959194509250565b6000806040838503121561319c578182fd5b6131a583613073565b915060208301356131b5816135a6565b809150509250929050565b600080604083850312156131d2578182fd5b6131db83613073565b946020939093013593505050565b6000602082840312156131fa578081fd5b8151611796816135a6565b600060208284031215613216578081fd5b8135611796816135b4565b600060208284031215613232578081fd5b8151611796816135b4565b6000806040838503121561324f578182fd5b823567ffffffffffffffff811115613265578283fd5b8301601f81018513613275578283fd5b61328485823560208401612ffd565b95602094909401359450505050565b6000602082840312156132a4578081fd5b5035919050565b6000602082840312156132bc578081fd5b5051919050565b600080604083850312156132d5578182fd5b50508035926020909101359150565b600081518084526132fc8160208601602086016134b7565b601f01601f19169290920160200192915050565b600083516133228184602088016134b7565b8351908301906133368183602088016134b7565b01949350505050565b60006001600160a01b0380871683528086166020840152508360408301526080606083015261337160808301846132e4565b9695505050505050565b602080825282518282018190526000919060409081850190868401855b828110156133ea57815180518552868101516001600160a01b03908116888701528682015116868601526060808201519086015260809081015115159085015260a09093019290850190600101613398565b5091979650505050505050565b602080825282518282018190526000919060409081850190868401855b828110156133ea57815180516001600160a01b03168552860151868501529284019290850190600101613414565b60208152600061179660208301846132e4565b6000821982111561346857613468613564565b500190565b60008261347c5761347c61357a565b500490565b600081600019048311821515161561349b5761349b613564565b500290565b6000828210156134b2576134b2613564565b500390565b60005b838110156134d25781810151838201526020016134ba565b83811115611ae45750506000910152565b6000816134f2576134f2613564565b506000190190565b600181811c9082168061350e57607f821691505b6020821081141561352f57634e487b7160e01b600052602260045260246000fd5b50919050565b600060001982141561354957613549613564565b5060010190565b60008261355f5761355f61357a565b500690565b634e487b7160e01b600052601160045260246000fd5b634e487b7160e01b600052601260045260246000fd5b634e487b7160e01b600052604160045260246000fd5b80151581146111df57600080fd5b6001600160e01b0319811681146111df57600080fdfea2646970667358221220502e3394afe2f9c14ed6ebe7a3b4a94fea807ecf631eb11aab235a80ff96f77f64736f6c63430008040033",
  "linkReferences": {},
  "deployedLinkReferences": {}
}